:100000000C94D0140C94FA140C94FA140C94FA1462
:100010000C94FA140C94FA140C94FA140C94FA1428
:100020000C94FA140C94D0C70C94FA140C94FA148F
:100030000C94FA140C9481260C94FA140C94FA146F
:100040000C94FA140C94B6200C94C7CA0C94FA14AD
:100050000C94B5970C94AB970C94FA140C94FA1476
:100060000C94FA140C94FA140C94FA140C94FA14D8
:100070000C94FA140C94FA140C94FA140C94FA14C8
:100080000C94FA140C94FA140C94FA144E414E4940
:100090004E495459494E46CDCCCC3D0AD7233C1746
:1000A000B7D13877CC2B329595E6241FB14F0A0093
:1000B0000020410000C84200401C4620BCBE4CCA83
:1000C0001B0E5AAEC59D7400407A10F35A00A07200
:1000D0004E18090010A5D4E80000E8764817000083
:1000E000E40B54020000CA9A3B000000E1F5050051
:1000F0000080969800000040420F000000A086019A
:10010000000000102700000000E803000000006469
:1001100000000000000A00000000000100000000D4
:10012000002C76D888DC674F0823DFC1DFAE59E1A9
:10013000B1B796E5E3E453C63AE651997696E8E618
:10014000C28426EB898C9B62ED407C6FFCEFBC9CEB
:100150009F40F2BAA56FA5F490055A2AF75C936BFD
:100160006CF9676DC11BFCE0E40D47FEF520E6B5B8
:1001700000D0ED902E0300943577050080841E0892
:100180000000204E0A000000C80C333333330F98B0
:100190006E12831141EF8D2114893BE65516CFFE77
:1001A000E6DB18D1844B381BF77C1D901DA4BBE403
:1001B00024203284725E228100C9F124ECA1E53D45
:1001C000273F004E65787420506F696E7400446F4D
:1001D0006E65004E657874004C6576656C696E6777
:1001E00020446F6E6521004D6F7665205A004732BE
:1001F00039205332004E65787420506F696E740058
:100200002569202F202575004732392053310047BA
:10021000323920533200436C69636B20746F204283
:100220006567696E00486F6D696E672058595A009E
:100230005A2056616C756500496E646578205900D6
:10024000496E64657820580053746F726520536559
:100250007474696E6773004C6F61642053657474C5
:10026000696E6773004C6576656C20436F726E65CE
:10027000727300426564205A0046616465204865D7
:1002800069676874004F6666004F6E0042656420BF
:100290004C6576656C696E670045646974204D65D0
:1002A0007368004C6576656C20426564004D6F7420
:1002B000696F6E00426564004E6F7A7A6C65004625
:1002C000616E20537065656400436F6E6669677583
:1002D000726174696F6E004C6F6164205365747451
:1002E000696E677300526573746F7265204465664A
:1002F00061756C74730053746F7265205365747408
:10030000696E67730050726568656174204142537D
:1003100020436F6E66005072656865617420504CB2
:100320004120436F6E6600416476616E63656420B0
:1003300053657474696E6773004D61696E00313284
:1003400035003A200035003A20004245443A4550F5
:10035000434F53203130304B0052756E61776179D5
:100360002057617463683A204F4E004D61782054E5
:10037000656D7000323735003A20004D696E2054AB
:10038000656D700035003A200045313A20455043F4
:100390004F53203130304B005053550047656E6548
:1003A000726963003A200050726F746F636F6C0063
:1003B000312E30003A20004261756400313135320F
:1003C0003030003A20004D656C7A69202843726510
:1003D000616C69747929004D657368204C65766598
:1003E0006C696E670045787472756465727300316C
:1003F000003A2000687474703A2F2F6D61726C6936
:100400006E66772E6F726700456E6465722D3320BD
:1004100050726F00323032302D30332D3331003294
:100420002E302E352E33004D61726C696E0054688B
:1004300065726D6973746F727300426F61726420CC
:10044000496E666F005072696E74657220496E66FF
:100450006F004D61696E003F004261636B00537431
:100460006F70004D323100417474616368204D65D6
:10047000646961005072696E742066726F6D204D00
:1004800065646961004D32320052656C6561736567
:10049000204D656469610041626F75742050726916
:1004A0006E74657200436F6E666967757261746918
:1004B0006F6E0054656D7065726174757265004D84
:1004C0006F74696F6E00526573756D652050726947
:1004D0006E74004D656469612052656C6561736579
:1004E000640054756E650053746F70205072696EAD
:1004F00074005061757365205072696E7400496EA6
:10050000666F2053637265656E003F0053746172BD
:1005100074205072696E740043616E63656C0050A4
:1005200072696E740043616E6E6F7420656E7465DF
:1005300072207375626469723A2000022E2E0001E7
:1005400052656672657368004D61696E004D6F7427
:10055000696F6E004D38340044697361626C6520C8
:10056000537465707065727300426564204C6576E3
:10057000656C696E6700473238004175746F2048BA
:100580006F6D65004D61696E0050726568656174DC
:1005900020504C4120456E6400507265686561745E
:1005A00020504C412042656400507265686561745A
:1005B0002041425320456E64005072656865617445
:1005C00020414253204265640054656D706572613C
:1005D0007475726500436F6F6C646F776E00507254
:1005E00065686561742041425300507265686561B9
:1005F0007420504C410046616E2053706565640064
:10060000426564004E6F7A7A6C65004D61696E00D8
:100610004261627973746570205A00466C6F77008E
:1006200046616E20537065656400426564004E6FDC
:100630007A7A6C6500426564205A0053706565647F
:10064000004D61696E002568753A25303268750085
:1006500025303268753A2530326875002568756432
:100660002025303268753A25303268750020202008
:10067000202020200020202020001FE03FF03FF01D
:100680003FF01FE01FE03FF03FF03FF00FC007805A
:1006900003001FE020102010201010201020201038
:1006A000201030300840048003003FFFF038007015
:1006B00030FC3020FC102078102030102C00D02E80
:1006C00031D02F7BD02F7BD02E31D02C00D02030BA
:1006D0001020781020FC1030FC303800703FFFF004
:1006E0003FFFF03800703186302387102787902F26
:1006F00087D02F03D02030102078102078102030A1
:10070000102F03D02F87D027879023871031863072
:100710003800703FFFF01FFFF81FFFF80410400281
:1007200008200208200410400820801041001041D9
:10073000000820800410400000001FFFF81FFFF891
:100740000000000000F801800030480080004843AD
:10075000C38CD0087124926FB041249E4008492474
:10076000904048FBB3CEE0300000000000000000E5
:100770000000007C000000002200000000220000B9
:100780000000226C7000003C3088000020208800AF
:100790000020208800002020880000707870004D24
:1007A0006564696120496E73657274656400507296
:1007B000696E742041626F72746564004D32350059
:1007C0005061757365205072696E740000006B4350
:1007D00000006B4300007A430000000000000000AE
:1007E00000000000290A002062797465733B2063D1
:1007F0007263200053657474696E67732053746F5D
:10080000726564202800454550524F4D2064617444
:100810006173697A65206572726F722E0A00290A07
:10082000002062797465733B20637263200020733B
:10083000746F7265642073657474696E6773207277
:1008400065747269657665642028004572723A2085
:10085000454550524F4D2043524300202863616C60
:1008600063756C6174656429210A0020213D2000B4
:10087000454550524F4D20435243206D69736D6181
:10088000746368202D202873746F726564292000BA
:100890004572723A20454550524F4D20496E64656D
:1008A00078002053697A653A2000496E6465783A89
:1008B00020004572723A20454550524F4D205665F2
:1008C0007273696F6E00204D61726C696E3D5637B0
:1008D00036290A00454550524F4D2076657273699E
:1008E0006F6E206D69736D61746368202845455093
:1008F000524F4D3D0048617264636F6465642044EB
:10090000656661756C742053657474696E677320D5
:100910004C6F616465640A000000FA430000FA430A
:100920000000A0400000C8410000A0420000A0421A
:100930000000C8430000BA42F4010000F4010000C6
:100940006400000088130000486F6D696E672046E0
:1009500061696C6564006F70656E00545249474769
:1009600045524544003A20007A5F6D696E00795F18
:100970006D696E00785F6D696E005265706F72749C
:10098000696E6720656E6473746F70207374617430
:1009900075730A0020746F6F206C6F6E6720657826
:1009A00074727573696F6E2070726576656E7465AA
:1009B000640A0020636F6C642065787472757369D3
:1009C0006F6E2070726576656E7465640A00000053
:1009D000000000000000000000000000A041000036
:1009E000A041000080405761726E696E673A2048EE
:1009F0006F6D696E672042756D702044697669730A
:100A00006F72203C20310A000202040000A0400066
:100A100000A0400000004000006B4300006B43005A
:100A2000007A43FFFFFF24F4D43050C38E20C2A2CB
:100A30004017828B7011127A910D816CD90AA861CE
:100A4000E108C7586607615143061E4B5D05C14565
:100A5000A7041A411104093D980371393103403646
:100A6000DB0265339102D4305402802E1D02632CC8
:100A7000EE01752AC501B028A001102781018F253C
:100A800064012B244B01E0223401AC211F018D2095
:100A90000D01801FFC00841EED00971DDF00B81CB7
:100AA000D200E61BC600201BBC00641AB200B219BB
:100AB000A8000A19A0006A189900D11791004017E0
:100AC0008B00B516840031167E00B31579003A15F7
:100AD0007300C7146F0058146A00EE136600881381
:100AE000630025135E00C7125B006C1257001512DD
:100AF0005400C111510070114F0021114B00D6104C
:100B000049008D1047004610440002104200C00FFB
:100B10004000800F3E00420F3C00060F3B00CB0E12
:100B20003800930E37005C0E3500270E3400F30DAD
:100B30003200C10D3100900D3000600D2E00320DDD
:100B40002D00050D2C00D90C2B00AE0C2900850CB6
:100B500029005C0C2700350C27000E0C2600E80B42
:100B60002400C40B2400A00B23007D0B23005A0B90
:100B70002100390B2100180B2000F80A1F00D90AA8
:100B80001E00BB0A1E009D0A1D00800A1D00630A8C
:100B90001C00470A1B002C0A1B00110A1A00F70947
:100BA0001A00DD091900C4091900AB0919009209DE
:100BB00017007B091800630917004C091600360955
:100BC0001600200916000A091500F5081500E008AE
:100BD0001400CC081400B8081400A40814009008ED
:100BE00013007D0812006B08130058081200460815
:100BF0001200340811002308110012081100010826
:100C00001100F0071000E0071000D0071000C00727
:100C10001000B0070F00A107100091070E00830716
:100C20000F0074070F0065070E0057070E004907F5
:100C30000E003B070D002E070E0020070D001307C6
:100C40000D0006070D00F9060C00ED060D00E0068C
:100C50000C00D4060C00C8060C00BC060C00B00644
:100C60000C00A4060B0099060C008D060B008206F2
:100C70000B0077060B006C060B0061060A00570696
:100C80000B004C060A0042060A0038060A002E062F
:100C90000A0024060A001A060A00100609000706C0
:100CA0000A00FD050900F4050900EB050900E2054D
:100CB0000900D9050900D0050900C7050900BE05CE
:100CC0000900B5050800AD050800A50509009C054B
:100CD0000800940508008C050800840508007C05C0
:100CE0000800740508006C050700650508005D052F
:100CF0000700560508004E05070047050700400598
:100D0000080038050700310507002A0507002305FC
:100D100007001C050600160507000F05070008055B
:100D2000060002050700FB040600F5040700EE04B8
:100D30000600E8040600E2040700DB040600D50410
:100D40000600CF040600C9040600C3040600BD0463
:100D50000600B7040600B1040500AC040600A604B2
:100D60000600A00405009B040600950405009004FD
:100D700006008A04050085040500800406007A0444
:100D8000050075040500700405006B040500660489
:100D90000500610405005C040500570405005204C9
:100DA00005004D04050048040500430405003E0409
:100DB00004003A04050035040500300404002C0446
:100DC000050027040400230405001E0404001A047F
:100DD000040016040500110404000D0404000904B5
:100DE00005000404040000040400FC030400F803EC
:100DF0000400F4030400F0030400EC030400E8031F
:100E00000400E4030400E0030400DC030400D8034E
:100E10000400D4030400D0030400CC030400C8037E
:100E20000300C503030024F404D9201BC40C5C0E8A
:100E30009804C4095F0265077101F405F900FB0419
:100E4000B30048048700C103690058035500030339
:100E50004500BE023A008402310053022A002902F2
:100E6000250004022000E4011C00C8011900AF01A4
:100E70001700980114008401130071011000610132
:100E8000100051010E0043010D0036010B002B0133
:100E90000B0020010B00150109000C0109000301E2
:100EA0000800FB000800F3000800EB000700E40066
:100EB0000600DE000600D8000600D2000600CC00C6
:100EC0000500C7000500C2000500BD000400B90010
:100ED0000400B5000400B1000400AD000400A90046
:100EE0000400A5000300A20003009F0004009B0073
:100EF0000300980003009500020093000300900097
:100F000003008D0002008B000300880002008600B1
:100F1000020084000300810002007F0002007D00C7
:100F200002007B00020079000200770001007600D9
:100F300002007400020072000100710002006F00E4
:100F400002006D0001006C0002006A0001006900EF
:100F500002006700010066000100650001006400F6
:100F600002006200010061000100600001005F00FA
:100F700002005D0001005C0001005B0001005A00FE
:100F800001005900010058000100570001005600FF
:100F900001005500010054000100530000005300FF
:100FA00001005200010051000100500001004F00FB
:100FB00001004E0000004E0001004D0001004C00F9
:100FC00001004B0000004B0001004A0001004900F5
:100FD00001004800000048000100470001004600F1
:100FE00000004600010045000000450001004400EB
:100FF00001004300000043000100420000004200E5
:1010000001004100000041000100400001003F00DC
:1010100000003F0001003E0000003E0001003D00D6
:1010200000003D0001003C0000003C0000003C00CE
:1010300001003B0000003B0001003A0000003A00C4
:1010400001003900000039000100380000003800BC
:1010500000003800010037000000370001003600B2
:1010600000003600000036000100350000003500A9
:10107000000035000100340000003400000034009E
:101080000100330000003300000033000100320093
:101090000000320000003200010031000000310089
:1010A000000031000100300000003000000030007E
:1010B00001002F0000002F0000002F0000002F0073
:1010C00001002E0000002E0000002E0001002D0067
:1010D00000002D0000002D0000002D0001002C005C
:1010E00000002C0000002C0000002C0001002B0050
:1010F00000002B0000002B0000002B0001002A0044
:1011000000002A0000002A0000002A000100290037
:10111000000029000000290000002900000029002B
:10112000010028000000280000002800000028001E
:101130000000280001002700000027000000270011
:101140000000270000002700010026000000260004
:1011500000002600000026000000260001002500F7
:1011600000002500000025000000250000002500EB
:1011700000002500010024000000240000002400DD
:1011800000002400000024000100230000002300D0
:1011900000002300000023000000230000002300C3
:1011A00000002300010022000000220000002200B5
:1011B00000002200000022000000220001002100A7
:1011C000000021000000210000002100000021009B
:1011D000000021000000210001002000000020008C
:1011E000000020000000200000002000000020007F
:1011F000000020000000200001001F0000001F0070
:1012000000001F0000001F0000001F0000001F0062
:1012100000001F0001001E0000001E0000001E0054
:1012200000001E000000043700001E290000511BB2
:1012300000005810000010090000CC0400007802E3
:1012400000004101000020436F756E7420583A0081
:1012500042656400453100626564002C2073797337
:1012600074656D2073746F707065642120486561CA
:101270007465725F49443A200048656174696E671D
:10128000204661696C65640048656174696E672019
:101290006661696C656400544845524D414C20526A
:1012A000554E4157415900546865726D616C20522A
:1012B000756E61776179004572723A204D415854DC
:1012C000454D50004D415854454D5020747269674A
:1012D0006765726564004572723A204D494E544507
:1012E0004D50004D494E54454D502074726967670A
:1012F00065726564004D383400202F00434F4D4D1A
:10130000554E49434154494F4E0044525952554E4F
:10131000004552524F525300494E464F00454348F4
:101320004F004572726F722077726974696E672020
:10133000746F20454550524F4D210A000F150E1273
:1013400016170E1303021A1401000E0C190DFF18C4
:101350000C040001627573793A20706175736564DD
:1013600020666F7220696E7075740A0062757379F9
:101370003A2070617573656420666F7220757365BD
:10138000720A00627573793A2070726F63657373C5
:10139000696E670A002121204B494C4C206361751E
:1013A00073656420627920746F6F206D75636820A7
:1013B000696E6163746976652074696D65202D209E
:1013C00063757272656E7420636F6D6D616E643AE1
:1013D000200053544F505045442E20005072696EE7
:1013E0007465722073746F70706564206475652015
:1013F000746F206572726F72732E20466978207444
:101400006865206572726F7220616E642075736505
:10141000204D39393920746F20726573746172748C
:101420002E202854656D706572617475726520692F
:10143000732072657365742E20536574206974205F
:1014400061667465722072657374617274696E6727
:10145000290A004E6F20436865636B73756D2077B2
:10146000697468206C696E65206E756D6265722C9A
:10147000204C617374204C696E653A20004E6F20D9
:10148000436865636B73756D2077697468206C6958
:101490006E65206E756D6265722C204C61737420D0
:1014A0004C696E653A2000636865636B73756D20E7
:1014B0006D69736D617463682C204C617374204C8A
:1014C000696E653A20004C696E65204E756D6265E7
:1014D00072206973206E6F74204C617374204C69A4
:1014E0006E65204E756D6265722B312C204C6173D8
:1014F00074204C696E653A20004D31313000534400
:101500002072656164206572726F720A00506C65AA
:10151000617365205265736574005052494E54459D
:10152000522048414C5445440025533A202553004D
:101530004B494C4C45442E20005072696E746572C4
:101540002068616C7465642E206B696C6C2829209E
:1015500063616C6C6564210A006563686F3A0045DD
:1015600072726F723A000A4D65617375726564201C
:10157000706F696E74733A0A00337833206D657347
:10158000682E205A206F66667365743A20004F46B5
:10159000460A0046616465204865696768742000F2
:1015A000426564204C6576656C696E672000466113
:1015B000696C656420746F20656E61626C652042A1
:1015C0006564204C6576656C696E670A004D6573CD
:1015D0006820426564204C6576656C2064617461A6
:1015E0003A0A00496E76616C6964206D6573682EF5
:1015F0000A00206E6F7420656E74657265642E0A31
:1016000000206F6620004D424C2047323920706F19
:10161000696E742000290A004A206F7574206F6675
:101620002072616E67652028302D00290A0049204C
:101630006F7574206F662072616E67652028302D8B
:10164000004D6573682070726F62696E6720646F09
:101650006E652E0A005374617274206D6573682084
:1016600070726F62696E67207769746820224732F2
:1016700039205331222066697273742E0A00473272
:10168000380A47323920533200686173206E6F2068
:10169000646174612E0A004D6573682042656420A0
:1016A0004C6576656C696E67200053206F757420F9
:1016B0006F662072616E67652028302D35292E0AED
:1016C0000020496E76616C69642065787472756477
:1016D00065722000536C6565702E2E2E004D65736B
:1016E0006820706F696E742063616E6E6F74206223
:1016F00065207265736F6C7665640A00436C69637C
:101700006B20746F20526573756D652E2E2E004E02
:101710006F204D6F76652E00456E642066696C659E
:10172000206C6973740A00426567696E2066696C93
:1017300065206C6973740A00286E6F2066696C6599
:10174000290043757272656E742066696C653A2073
:10175000005344207072696E74696E6720627974F8
:101760006520004E6F74205344207072696E746956
:101770006E670A002E0A0044656C6574696F6E20FE
:101780006661696C65642C2046696C653A20004688
:10179000696C652064656C657465643A00256973DD
:1017A0000025696D20256973002569682025696D0C
:1017B0002025697300256964202569682025696DE5
:1017C00020256973002569792025696420256968C9
:1017D0002025696D20256973005072696E7420742C
:1017E000696D653A2000496E76616C6964205069C4
:1017F0006E204D6F64650A0020573A00436F6F6C8E
:10180000696E672E2E2E0048656174696E672E2EF4
:101810002E0045202553006F6B006F6666001D1378
:10182000181311130A13FC1244454255473A004D50
:101830003131322053687574646F776E004D3131E9
:101840003320530020573A0042656420436F6F6C89
:10185000696E672E2E2E00426564204865617469AA
:101860006E672E2E2E00456E6465722D33205072E9
:101870006F204F46462E00204500204D393220581B
:10188000004348414D4245525F54454D50455241F9
:1018900054555245004D4F54494F4E5F4D4F4445AE
:1018A0005300544845524D414C5F50524F544543AC
:1018B00054494F4E004155544F5245504F52545F7A
:1018C00053445F5354415455530050524F4D50545C
:1018D0005F535550504F525400454D455247454E69
:1018E00043595F50415253455200434153455F4C69
:1018F000494748545F4252494748544E4553530064
:10190000544F47474C455F4C494748545300534F49
:101910004654574152455F504F5745520042554932
:101920004C445F50455243454E54004C4556454C3F
:10193000494E475F44415441005A5F50524F42451F
:10194000004155544F4C4556454C005052494E5459
:101950005F4A4F420050524F475245535300415542
:10196000544F5245504F52545F54454D5000564FBE
:101970004C554D455452494300454550524F4D003A
:1019800042494E4152595F46494C455F5452414E7F
:10199000534645520053455249414C5F584F4E5FA4
:1019A000584F4646004649524D574152455F4E41B9
:1019B0004D453A4D61726C696E20322E302E352EB7
:1019C0003320284769744875622920534F55524384
:1019D000455F434F44455F55524C3A687474707389
:1019E0003A2F2F6769746875622E636F6D2F4D6192
:1019F000726C696E4669726D776172652F4D6172A6
:101A00006C696E2050524F544F434F4C5F564552B5
:101A100053494F4E3A312E30204D414348494E45AF
:101A20005F545950453A456E6465722D33205072AB
:101A30006F2045585452554445525F434F554E54BC
:101A40003A3120555549443A6365646532613266DE
:101A50002D343161322D343734382D396231322D05
:101A60006335356336326633363766660A002F2FA4
:101A700020004D31343520533C696E6465783E203A
:101A80006F7574206F662072616E67652028302D37
:101A900031290A00205400205200416363656C65BF
:101AA000726174696F6E3A2050003F4A206F7574FE
:101AB000206F662072616E67652028302E303120DD
:101AC000746F20302E33290A004F4646004F4E00D7
:101AD000205A0020590020580020204D61783A20DB
:101AE00000200020204D696E3A2000536F6674205C
:101AF000656E6473746F70733A200046523A00202A
:101B0000466C6F773A200050726F74656374656439
:101B10002050696E0A004D424C2041646A7573740E
:101B2000205A0020643A0020693A0020703A0049A7
:101B30006E76616C69642065787472756465720A8A
:101B40000064697300656E0043290A0061626C6578
:101B50006420286D696E2074656D702000436F6C81
:101B60006420657874727564657320617265200005
:101B70004D65736820706F696E742063616E6E6F5F
:101B800074206265207265736F6C7665640A004D1F
:101B900034323120696E636F7272656374207061D4
:101BA00072616D657465722075736167650A0048BE
:101BB0006F6D6520257325732573204669727374D4
:101BC000004F666673657473204170706C6965645C
:101BD000004572723A20546F6F2066617221005482
:101BE0006F6F206661722066726F6D207265666528
:101BF00072656E636520706F696E740A00454550AA
:101C0000524F4D204F4B0A00446F6E652070726931
:101C10006E74696E672066696C650A004D3737001F
:101C20004D333100496E76616C6964206578747259
:101C3000756465720A004361703A00220A00656E9D
:101C40007175657565696E672022006F6B0052655E
:101C500073656E643A200023646566696E6520448E
:101C6000454641554C545F004B6420004B692000B1
:101C70004B702000504944204175746F74756E6537
:101C80002066696E697368656421205075742074DC
:101C90006865206C617374204B702C204B69206147
:101CA0006E64204B6420636F6E7374616E74732076
:101CB00066726F6D2062656C6F7720696E746F203D
:101CC000436F6E66696775726174696F6E2E680A1C
:101CD00000504944204175746F74756E65206661CB
:101CE000696C6564212074696D656F75740A0050B4
:101CF0004944204175746F74756E65206661696C26
:101D00006564212054656D7065726174757265201B
:101D1000746F6F20686967680A00204B643A20007E
:101D2000204B693A2000204B703A20000A20436C77
:101D3000617373696320504944200A002054753A46
:101D40002000204B753A2000206D61783A20002059
:101D50006D696E3A200020643A2000206269617348
:101D60003A2000504944204175746F74756E6520A7
:101D700073746172740A00504944204175746F7421
:101D8000756E65206661696C6564212054656D70AF
:101D90006572617475726520746F6F206869676819
:101DA0000A00504944204175746F74756E65206651
:101DB00061696C6564212042616420657874727584
:101DC000646572206E756D6265720A004572723AC2
:101DD000207574663820666F6E74206E6F7420698B
:101DE0006E697469616C697A65642E004572723A35
:101DF000207574663820666F6E74206E6F7420696B
:101E00006E697469616C697A65642E004572723A14
:101E1000207574663820666F6E74206E6F7420694A
:101E20006E697469616C697A65642E004D33303374
:101E3000205531204525692053256900504944200B
:101E40004175746F74756E65202A005049442D44A5
:101E5000202A005049442D49202A005049442D5041
:101E6000202A005654726176204D696E00566D69C5
:101E70006E00566D6178204500566D6178205A00DD
:101E8000566D6178205900566D6178205800416D7B
:101E90006178204500416D6178205A00416D61787C
:101EA000205900416D6178205800412D54726176AF
:101EB000656C00412D526574726163740041636307
:101EC000656C004A756E6374696F6E2044657600B8
:101ED0004573746570732F6D6D005A7374657073FC
:101EE0002F6D6D005973746570732F6D6D0058738D
:101EF000746570732F6D6D00416476616E63656407
:101F00002053657474696E6773003F0043616E63AC
:101F1000656C00496E6974004D34323800496E6951
:101F20007469616C697A6520454550524F4D005483
:101F3000656D706572617475726500537465707358
:101F40002F6D6D004A65726B00416363656C65724D
:101F50006174696F6E0056656C6F636974790053C4
:101F6000657420486F6D65204F66667365747300F5
:101F7000436F6E66696775726174696F6E00000CFD
:101F80000D00FE07022603BC017FFE08FE08FE05C9
:101F9000080806000040F0C88888987810050808EE
:101FA000060000C0F88888888888F80505050600BE
:101FB000012030F830200508080600002070F820C5
:101FC000202020E00509090600FF2070A8A8B88895
:101FD000887020050606060001E08CEA8C8A0A0556
:101FE00009090600FFF8A88888888888A8F8050AE3
:101FF0000A0600FE205050505088A8A8887003039D
:102000000306000340A040FFFFFFFFFFFFFFFFFFAD
:10201000FFFFFFFFFFFFFFFFFFFFFFFFFF000000CD
:102020000605FF010707060200808080808000808F
:10203000030303060105A0A0A00506060600005044
:10204000F85050F8500509090600FF2070A8A0704C
:1020500028A87020050707060000C8C8102040986F
:102060009805070706000040A0A040A8906801035B
:10207000030602058080800309090601FF20404015
:102080008080804040200309090601FF80404020F5
:10209000202040408005070706000020A87020701F
:1020A000A8200505050600012020F82020020303D2
:1020B0000601FFC04080050101060003F80202028C
:1020C000060100C0C00507070600000810102040E8
:1020D0004080050707060000708898A8C88870032C
:1020E000070706010040C040404040E005070706E2
:1020F0000000708808102040F8050707060000F867
:10210000081030088870050707060000103050904E
:10211000F81010050707060000F880F0080888701E
:10212000050707060000304080F088887005070723
:10213000060000F808101020202005070706000000
:102140007088887088887005070706000070888886
:1021500078081060020505060100C0C000C0C0027A
:1021600006060601FFC0C000C04080030505060149
:10217000012040804020050303060002F800F80318
:102180000505060101804020408005070706000084
:10219000708810202000200507070600007088B80E
:1021A000A8B88070050707060000708888F888883E
:1021B00088050707060000F04848704848F0050702
:1021C0000706000070888080808870050707060079
:1021D00000F04848484848F0050707060000F88026
:1021E00080F08080F8050707060000F88080F08006
:1021F0008080050707060000708880809888700539
:102200000707060000888888F8888888030707067B
:102210000100E04040404040E0050707060000386C
:102220001010101090600507070600008890A0C0ED
:10223000A09088050707060000808080808080F8D5
:1022400005070706000088D8A8888888880507073A
:102250000600008888C8A898888805070706000037
:1022600070888888888870050707060000F08888CD
:10227000F080808005070706000070888888A89095
:1022800068050707060000F08888F0A09088050719
:102290000706000070888070088870050707060030
:1022A00000F820202020202005070706000088884D
:1022B0008888888870050707060000888888885005
:1022C000502005070706000088888888A8A85005C0
:1022D00007070600008888502050888805070706F1
:1022E000000088885020202020050707060000F8FD
:1022F0000810204080F80309090601FFE080808073
:1023000080808080E00507070600008040402010A4
:1023100010080309090601FFE020202020202020CA
:10232000E00503030600052050880501010600FEB4
:10233000F80303030601058040200505050600009B
:1023400070087888780507070600008080F0888884
:1023500088F0050505060000708080887005070775
:1023600006000008087888888878050505060000BA
:102370007088F08070050707060000304840E04094
:1023800040400507070600FE7088888878087005B9
:1023900007070600008080F0888888880307070602
:1023A00001004000C0404040E00409090601FE1061
:1023B00000301010101090600507070600008080A4
:1023C0008890E09088030707060100C04040404025
:1023D00040E0050505060000D0A8A8A8A805050549
:1023E000060000B0C88888880505050600007088CA
:1023F0008888700507070600FEF0888888F08080CE
:102400000507070600FE788888887808080505050E
:10241000060000B0C88080800505050600007880B1
:102420007008F00507070600002020F8202020187B
:1024300005050506000088888898680505050600DA
:102440000088888850200505050600008888A8A80F
:10245000500505050600008850205088050707062E
:1024600000FE88888850204080050505060000F899
:10247000102040F80309090601FF20404040804039
:102480004040200109090602FF8080808080808012
:1024900080800309090601FF804040402040404001
:1024A0008005030306000248A890FF5072696E740D
:1024B000205061757365640070012C019001270143
:1024C000B0012201C0011D01F00118011002130129
:1024D00030020E016002090190020401C002FF00F7
:1024E0000003FA004003F5008003F000D003EB0086
:1024F0002004E6007004E100E004DC004005D700A1
:10250000C005D2004006CD00D006C8008007C30039
:102510003008BE00F008B900C009B400B00AAF002E
:10252000B00BAA00D00CA500000EA000500F9B001D
:10253000C01096005012910000148C00C015870046
:10254000B0178200B0197D00D01B7800001E730008
:1025500040206E0090226900F024640040275F0054
:1025600090295A00E02B5500102E500020304B00CF
:1025700010324600E033410090353C001037370000
:1025800070383200A0392D00B03A2800A03B23005B
:10259000603C1E00103D1900903D1400103E0F00DD
:1025A000703E0A00C03E0500003F0000403FFBFFB8
:1025B000803FF6FFC03FF1FF2042403A0020403A02
:1025C000007C3C3E5E2B3D3F2F5B5D3B2C2A225C1A
:1025D0000043616E6E6F74206F70656E207375625C
:1025E000646972200053442063617264206F6B0A37
:1025F000006F70656E526F6F74206661696C656400
:102600000A00766F6C756D652E696E69742066615F
:10261000696C65640A00534420696E6974206661C0
:10262000696C0A004D3234004D3233202573004668
:10263000696C652073656C65637465640A0020537A
:10264000697A653A200046696C65206F70656E6531
:10265000643A2000454E4420535542524F55544948
:102660004E450A002220706F73002220706172654F
:102670006E743A2200535542524F5554494E4520EC
:1026800043414C4C207461726765743A2200747245
:1026900079696E6720746F2063616C6C207375625A
:1026A0002D67636F64652066696C65732077697454
:1026B0006820746F6F206D616E79206C6576656C33
:1026C000732E204D4158206C6576656C2069733AF5
:1026D000310A0057726974696E6720746F206669E9
:1026E0006C653A20002E0A006F70656E2066616985
:1026F0006C65642C2046696C653A200066726573CF
:102700006800646F696E67002066696C653A200036
:102710004E6F77200000002100240027002A0000CF
:10272000002200250028002B0000002000230026A6
:10273000002900020202020202020204040404044C
:102740000404040303030303030303010101010160
:102750000101010102040810204080010204081058
:102760002040800102040810204080804020100892
:10277000040201000000010200090A000000000438
:102780000308070000000000000000000000000037
:10279000000000022020506C616E6E65724275660A
:1027A00066657242797465733A20002046726565E9
:1027B000204D656D6F72793A2000322E302E352E05
:1027C000330A004D61726C696E0020536F66747736
:1027D0006172652052657365740A002057617463E5
:1027E00068646F672052657365740A002042726FD7
:1027F000776E206F75742052657365740A002045EA
:10280000787465726E616C2052657365740A00504D
:102810006F77657255700A0073746172740A006193
:1028200075746F25632E67004732385859004D3153
:10283000303031006572726F722077726974696E20
:102840006720746F2066696C650A00446F6E6520AE
:10285000736176696E672066696C652E0A004D3279
:102860003900456E6473746F7073002553202563BF
:1028700020256320256320256300205A3A00205933
:102880003A0020583A00656E6473746F7073206864
:1028900069743A20004D6F76652025736D6D0000D8
:1028A0004D6F766520302E316D6D004D6F76652051
:1028B000316D6D004D6F76652031306D6D004D6F5F
:1028C0007665204178697300486F74656E64207482
:1028D0006F6F20636F6C6400457874727564657205
:1028E000004D6F7665205A004D6F76652059004D7A
:1028F0006F76652058005072696E742066726F6D35
:10290000204D6564696100220A00556E6B6E6F7719
:102910006E20636F6D6D616E643A202200456E64B7
:1029200065722D332050726F2052656164792E00DC
:102930005072696E74696E672E2E2E0020746F6F50
:10294000206C6F6E6720657874727573696F6E2086
:1029500070726576656E7465640A0020636F6C64DE
:1029600020657874727573696F6E20707265766514
:102970006E7465640A002E0A006F70656E206661D1
:10298000696C65642C2046696C653A200020453AE4
:1029900000205A3A0020593A00583A0077E33AEAC0
:1029A00011241FBECFEFD0E4DEBFCDBF12E0A0E008
:1029B000B1E0EEEDF0EF01E00BBF02C007900D9229
:1029C000AC32B107D9F723E1ACE2B2E001C01D920D
:1029D000A032B207E1F714E1CFECD4E104C02197B3
:1029E000FE010E94CBF7CE3CD107C9F70E94B6E4A6
:1029F0000C9462F80C9400002F923F924F925F92D9
:102A00006F927F928F929F92AF92BF92CF92DF92FE
:102A1000EF92FF920F931F93CF93DF93CDB7DEB763
:102A200062970FB6F894DEBF0FBECDBF788B6F876D
:102A3000DC018D909D90AD90BC90139714962D91D4
:102A40003D914D915C9117972D833E834F8358871D
:102A500020E030E040E251E4C501B4010E945CF5A1
:102A600028EC38E648E15CE30E943EEF0E9452F613
:102A700016160CF024C161E0E62E660FFF08F70180
:102A8000EE0FFF1FEE0FFF1FED5AF14F40805180F8
:102A90006280738087010F5F1F4F20E030E040E2CB
:102AA00051E46D817E818F8198850E945CF528ECD0
:102AB00038E648E15CE30E943EEF0E9452F61616AB
:102AC0000CF001C161E0E62F660FFF0BFA8BE98B7A
:102AD000EE0FFF1FEE0FFF1FED5AF14F20813181E6
:102AE0004281538129833A834B835C8329883A88C6
:102AF0003FEF231A330AB701660F771FAB014E0D64
:102B00005F1D5A874987FA0189899A89E80FF91F59
:102B1000EE0FFF1FEE0FFF1FE358FD4FC080D18067
:102B2000E280F380F801EE0FFF1FEE0FFF1FED5A5A
:102B3000F14FA301920160817181828193810E9492
:102B40005CF56B877C878D879E87A3019201C50109
:102B5000B4010E945CF52B013C01C801880F991F4C
:102B6000080F191FA989BA89A00FB11FAA0FBB1F8F
:102B7000AA0FBB1FA358BD4FA70196016D917D9170
:102B80008D919C910E945CF52B853C854D855E85E1
:102B90000E94E0F5A30192010E943EEFA701960179
:102BA0000E945DF56B017C01E985FA85E20DF31D5C
:102BB000EE0FFF1FEE0FFF1FE358FD4F8080918047
:102BC000A280B380020D131DF801EE0FFF1FEE0F60
:102BD000FF1FE358FD4FA50194016081718182813F
:102BE00093810E945CF52B853C854D855E850E9416
:102BF000E0F5A30192010E943EEFA50194010E941D
:102C00005DF5A70196010E945CF54B015C01F101A5
:102C1000EE0FFF1FEE0FFF1FED5AF14F29813A8192
:102C20004B815C8160817181828193810E945CF51E
:102C30009B01AC01C501B4010E94E0F54B015C01B0
:102C400029813A814B815C816D817E818F8198855C
:102C50000E945CF59B01AC01C501B4010E943EEFEE
:102C6000A70196010E945DF5EF85F88920813181E9
:102C7000428153810E943EEF2091790230917A0285
:102C800040917B0250917C020E945DF562960FB6E6
:102C9000F894DEBF0FBECDBFDF91CF911F910F9192
:102CA000FF90EF90DF90CF90BF90AF909F908F906C
:102CB0007F906F905F904F903F902F90089567FFA7
:102CC000DBCE60E0D9CE67FFFECE60E0FCCE8F9217
:102CD0009F92AF92BF92CF92DF92EF92FF92CF93EB
:102CE000DF93EC018090750290907602A0907702BD
:102CF000B090780220E030E0A901C501B4010E9443
:102D0000D8EE882309F454C0C880D980EA80FB80BB
:102D1000A7019601C501B4010E94D8EE18160CF067
:102D20004CC0209171023091720240917302509117
:102D30007402C701B6010E94D8EE882331F1C09217
:102D40007102D0927202E0927302F09274022091AA
:102D50006D0230916E0240916F0250917002688155
:102D600079818A819B810E943EEF9B01AC0160E0EA
:102D700070E080E89FE30E945CF56093240170930B
:102D80002501809326019093270160912401709181
:102D900025018091260190912701DF91CF91FF902D
:102DA000EF90DF90CF90BF90AF909F908F9008955D
:102DB00060E070E080E89FE3F0CF60E070E0CB017E
:102DC000ECCF8F929F92AF92BF92CF92DF92EF9211
:102DD000FF92FC01C080D180E280F38020E030E0EF
:102DE00048EC52E4C701B6010E943EEF4B015C0182
:102DF00020E030E0A901C701B6010E94D8EE20E032
:102E000030E040EA50E487FF04C020E030E040EAD0
:102E100050ECC501B4010E945DF520E030E040E2D5
:102E200051E40E94E0F50E9452F69B018BE237FFCD
:102E300005C022273327261B370B8DE280933A02E9
:102E4000C90168EE73E00E9498F7CB01EAE0F0E078
:102E5000BF010E9498F7805D80933B02C90164E640
:102E600070E00E9498F7CB01BF010E9498F7805D47
:102E700080933C02C901BF010E9498F7282FCB0123
:102E8000BF010E9498F7805D80933D028EE280939F
:102E90003E02205D20933F028AE392E0FF90EF9094
:102EA000DF90CF90BF90AF909F908F9008959C013E
:102EB00097FF26C0EE27FF27E81BF90B2D398FEF70
:102EC00038070CF05DC08DE280933C02CF0164E6D0
:102ED00070E00E9498F7CB012AE030E0B9010E942F
:102EE00098F7805D80933D02CF01B9010E9498F769
:102EF000CB01B9010E9498F7805D80933E022AC001
:102F0000283E83E03807B4F1C90168EE73E00E94FF
:102F100098F7CB01EAE0F0E0BF010E9498F7805DEE
:102F200080933C02C90164E670E00E9498F7CB01EF
:102F3000BF010E9498F7805D80933D02C901BF01E7
:102F40000E9498F7CB01BF010E9498F7805D8093A3
:102F50003E02F901CF016AE070E00E9498F7805DBF
:102F600080933F028CE392E008958DE237FDC5CF58
:102F700080E2C3CFF90180E2243631050CF0A4CF02
:102F800080E280933C0280933D02EA30F1056CF3CD
:102F90008DE237FF80E280933D02CF016AE070E06E
:102FA0000E9498F7605D60933E02D4CFFC01A0813F
:102FB000B1811C92A281B3818C918F5F8C9302802E
:102FC000F381E02D90818CE0989F800D1124E5E045
:102FD000FEE013AE84AF0895609103017091040187
:102FE000072E000C880B990B0E94DFEE2AE037EDCC
:102FF00043E25CE30E943EEF60934E0170934F0109
:103000008093500190935101089580916907811137
:1030100004C08091AF028093D90708958091690719
:10302000811104C08091AF028093D90708958091E7
:103030006E0F8823C1F0815080936E0FE7EBFDE0A7
:10304000882351F08150990B2BE1289FF001299F93
:10305000F00D1124E05AF14F8BE1ACE9BDE0019095
:103060000D928A95E1F720916E0F211105C0809194
:10307000780F80628093780F81E090E0A0E0B0E06C
:10308000211103C080E090E0DC018093550790930C
:103090005607A0935707B093580710924A0781E04C
:1030A0008093650783E080934C0108950C9459C97F
:1030B0000C9459C9CF93DF93C0914007D091410739
:1030C000209729F160913C0770913D0780913E0760
:1030D00090913F070E9452F66E5F7F4F24976C17C6
:1030E0007D07ACF47093AB036093AA030E944DC9B3
:1030F000605A75418F4F9F4F6093AC037093AD033F
:103100008093AE039093AF03DF91CF910895109217
:10311000AC031092AD031092AE031092AF03F4CF44
:103120000F931F930E944DC90091F1021091F2027A
:103130002091F3023091F402601B710B820B930B10
:1031400097FD0CC089B183FB882780F991E089271E
:103150004A9B8260309B84608093F0028091F002F1
:1031600081709091F00291FD82609091EF0298172A
:1031700049F0813009F148F0823079F0833091F0E4
:103180008093EF021F910F910895913079F0923062
:10319000B9F79091EE0291500CC0992339F0933019
:1031A000C1F3EECF9130A9F3923051F79091EE0236
:1031B0009F5F9093EE02E4CF992359F3933001F788
:1031C000F5CFCF92DF92EF92FF92CF93C82F0E945C
:1031D0004DC96B017C0124EA30E74DE75FE3609164
:1031E000AB027091AC028091AD029091AE020E9450
:1031F000D8EE87FD18C08AEF90E0A0E0B0E08C0D1B
:103200009D1DAE1DBF1D8093DE029093DF02A09333
:10321000E002B093E102C0930201CF91FF90EF90E2
:10322000DF90CF90089580E090E0DC01E8CFCF936D
:10323000C82FCB010E94A18A85E699E00E94A18A4D
:1032400086E599E0CC2311F08BE599E00E94A18AF4
:103250008AE0CF910C949A8A6091AF027091B0028B
:103260008091B1029091B20241E00C94E28820E09A
:1032700040E070E060E088EC99E10E94907481E0A9
:10328000809333021092300210922F02089521E0B1
:10329000209333026093AB027093AC028093AD0233
:1032A0009093AE0220E040E070E060E080914B0738
:1032B00090914C070C9490746DEC7CEC8CEC9CE33E
:1032C0000C9447196DEC7CEC8CEC9DE30C94471945
:1032D00060E070E080E89FE30C94471960E070E0E4
:1032E00080E291E40C94471981E0809333021092BC
:1032F0005C0220E040E070E060E081E49EE10E943A
:10330000907486E795E09093B3058093B205089595
:1033100081E0809333028091A4058770873041F06B
:1033200010925C0286E795E09093B3058093B20516
:103330008091EC0C8093A50280E00E94C18820E07F
:1033400040E070E060E080E29EE10C94907420E048
:1033500040E070E060E082E49BE10E94907481E0D4
:1033600080932E028091A602811107C088E092E02E
:103370009093B3058093B20508958FE092E0F8CF63
:103380008091A5020E94C188109233020C943E7570
:103390008F929F92AF92BF92CF92DF92EF92FF9265
:1033A000CF938091430710924307882369F01092CE
:1033B0003302CF91FF90EF90DF90CF90BF90AF900E
:1033C0009F908F900C943E754091550750915607F1
:1033D00060915707709158074115510561057105B6
:1033E00029F1109255071092560710925707109224
:1033F000580781E080934C018091A40586958695BD
:1034000080FF19C080912F0290913002840F951F88
:103410009093300280932F028091A3029091A40296
:10342000840F951F9093A4028093A30280914C0176
:10343000882309F4A8C060912F0270913002072EF2
:10344000000C880B990B0E94DFEE2091E20730916F
:10345000E3074091E4075091E5070E943EEF6B01BE
:103460007C0120E030E44CE156E40E943EEF4B0149
:103470005C0120E030E0A901C701B6010E94D8EE4E
:1034800020E030E040EA50E487FF04C020E030E074
:1034900040EA50ECC501B4010E945DF520E030E047
:1034A00040E251E40E94E0F50E9452F66B017C017B
:1034B0008BE2F7FE09C0F094E094D094C094C11C54
:1034C000D11CE11CF11C8DE280933902C701B601C9
:1034D00020E137E240E050E00E94ACF78AE0882E1D
:1034E000912CA12CB12CCA01B901A50194010E9413
:1034F000ACF7605D60933A02C701B60128EE33E095
:1035000040E050E00E94ACF7CA01B901A501940166
:103510000E94ACF7605D60933B028EE280933C02B8
:10352000C701B60124E630E040E050E00E94ACF76D
:10353000CA01B901A50194010E94ACF7605D6093D6
:103540003D02C701B601A50194010E94ACF7C62F48
:10355000CA01B901A50194010E94ACF7605D6093B6
:103560003E02C05DC0933F0269E372E080E196E0F5
:10357000CF91FF90EF90DF90CF90BF90AF909F9052
:103580008F900C94DB7BCF91FF90EF90DF90CF90EA
:10359000BF90AF909F908F900895CF93DF9300D00E
:1035A00000D0CDB7DEB78091430710924307882340
:1035B00059F0109233020E943E750F900F900F90B9
:1035C0000F90DF91CF910895609155077091560744
:1035D00080915707909158076115710581059105F4
:1035E00061F10E94DFEE2091AB023091AC0240917C
:1035F000AD025091AE020E943EEF2091710D3091CC
:10360000720D4091730D5091740D0E945DF56093A1
:10361000710D7093720D8093730D9093740D83E010
:103620000E94E11881E080934C011092550710929E
:103630005607109257071092580780914C01882323
:1036400009F4BBCF209145073091460740914707C9
:10365000509148076091710D7091720D8091730DBA
:103660009091740D0E945CF569837A838B839C83AF
:10367000CE0101960E94E116BC0188ED98E20E94FD
:10368000DB7B9BCF0F931F93CF93DF93CDB7DEB739
:103690002A970FB6F894DEBF0FBECDBF80914C01C4
:1036A0008823F1F01F9289E08F938091A60290E029
:1036B00001969F938F9380E092E09F938F938E016A
:1036C0000F5F1F4F1F930F930E946FEEB80185EF9E
:1036D00091E00E94DB7B0FB6F894DEBF0FBECDBF3A
:1036E00084E080934C0180912E02811108C020E07B
:1036F00040E070E060E08DEC93E40E9490742A96C4
:103700000FB6F894DEBF0FBECDBFDF91CF911F91F2
:103710000F9108958F929F92AF92BF92CF92DF92B6
:10372000EF92FF920F931F93CF93DF9361E081E0BD
:103730000E941F74C0914A0785E0982E9C0E99EB59
:10374000E92E95E0F92ED3E0DC1B29EAC22E25E014
:10375000D22E12E01C1B3EEDA32E35E0B32E01E06D
:103760000C1B8C2E8194C11133C080914907882392
:10377000B1F080914C01882359F081E09091490784
:10378000911180E024E049EC55E0682D0E94E1C3EE
:10379000CF5FC911E8CF84E0809344070CC08091CB
:1037A000430710924307882321F30E943E758091BE
:1037B00065078823F1F2DF91CF911F910F91FF9060
:1037C000EF90DF90CF90BF90AF909F908F90089533
:1037D000C13051F580914907813079F080914C01D9
:1037E0008823B1F21F92BF92AF920F9381E0909124
:1037F0004907913071F180E02CC08091430710920D
:103800004307882359F360914A0270914B0240911B
:10381000470280914E0290914F020E9455C78091BD
:1038200065078823D9F2C7CFC23009F045C080911F
:1038300049078230B9F080914C01882309F4A8CF60
:103840001F92DF92CF921F9381E0909149079230AF
:1038500091F68F930E94EE730F900F900F900F9040
:103860000F9096CF8091430710924307882319F356
:10387000409147026FEF7FEF80914E0290914F028F
:103880000E9455C7809165078823A9F294CF809143
:103890004307109243078823B1F060914A02709168
:1038A0004B024091470290E080E00E9455C7809112
:1038B0006507882341F07FCFC33009F069CF80913D
:1038C0004907833021F380914C01882309F460CFAC
:1038D0001F92FF92EF92DF9381E09091490793301E
:1038E00009F089CFB6CF8F929F92AF92BF92CF92BD
:1038F000DF92EF92FF920F931F93CF93DF9361E0DC
:1039000081E00E941F74C0914A0785E0982E9C0EAA
:1039100099E9E92E95E0F92ED3E0DC1B29E8C22EC7
:1039200025E0D22E12E01C1B3AEEA32E35E0B32E7A
:1039300001E00C1B8C2E8194C11133C0809149078A
:103940008823B1F080914C01882359F081E0909157
:103950004907911180E024E049EC55E0682D0E9470
:10396000E1C3CF5FC911E8CF84E0809344070CC066
:103970008091430710924307882321F30E943E75EC
:10398000809165078823F1F2DF91CF911F910F910C
:10399000FF90EF90DF90CF90BF90AF909F908F906F
:1039A0000895C13051F580914907813079F08091B7
:1039B0004C018823B1F21F92BF92AF920F9381E026
:1039C00090914907913071F180E02CC080914307BC
:1039D00010924307882359F360914802709149027D
:1039E0004091460280914C0290914D020E9455C731
:1039F000809165078823D9F2C7CFC23009F045C04E
:103A0000809149078230B9F080914C01882309F4F4
:103A1000A8CF1F92DF92CF921F9381E09091490728
:103A2000923091F68F930E94EE730F900F900F904B
:103A30000F900F9096CF80914307109243078823F1
:103A400019F3409146026FEF7FEF80914C02909105
:103A50004D020E9455C7809165078823A9F294CF33
:103A600080914307109243078823B1F06091480288
:103A7000709149024091460290E080E00E9455C753
:103A800080916507882341F07FCFC33009F069CF6B
:103A900080914907833021F380914C01882309F4F8
:103AA00060CF1F92FF92EF92DF9381E090914907E0
:103AB000933009F089CFB6CF6DEC7AE183E00C94B6
:103AC000EEE06EEB73E482E00C94EEE063EC73E402
:103AD00081E00C94EEE068EC73E480E00C94EEE09E
:103AE000AF92BF92CF92DF92EF92FF920F931F930C
:103AF000CF93DF93CDB7DEB7ADB6BEB680917A0770
:103B00006DE677E0882311F06AE777E0FB0101902A
:103B10000020E9F7CF01861B970B01962DB73EB722
:103B2000281B390B0FB6F8943EBF0FBE2DBF8DB7C3
:103B30009EB701967C0180E2EDB7FEB78183C70195
:103B400001960E9433F88AE0C82E85E0D82E0CE05A
:103B500015E02AE93BE641E05EE168E175E08FE1CE
:103B600095E00E94D4780FB6F894BEBE0FBEADBEED
:103B7000DF91CF911F910F91FF90EF90DF90CF9049
:103B8000BF90AF900895CF92DF92EF92FF920F9384
:103B90001F9387E5C82E84E0D82EF12CE12C07EE88
:103BA00014E02AE93BE649E658E569E574E08EE56C
:103BB00094E00E94D4781F910F91FF90EF90DF90D6
:103BC000CF900895CF92DF92EF92FF920F931F93C1
:103BD00081ECC82E81E0D82EF12CE12C03EC11E011
:103BE00020EC39E147E05FE66EEC71E083ED91E0B7
:103BF0000E94D4781F910F91FF90EF90DF90CF90AB
:103C000008958DE697E00E94CDCF0E9436750C9402
:103C10007AC380914C01882341F030E020E041E0FC
:103C200066E172E081E00E94567B8091430710922A
:103C30004307882321F01092A6020C94A719089537
:103C400080914C01882341F030E020E041E065E2C2
:103C500072E082E00E94567B80915C028770873020
:103C600079F410922D0220E040E070E060E082EEF6
:103C70009DE10E94907481E080932C020C94076F68
:103C8000089580914C01882341F030E020E041E02C
:103C900065E272E082E00E94567B80915C02877050
:103CA000873041F420E040E070E060E089E09EE190
:103CB0000C94907408950F931F93CF93DF93CDB717
:103CC000DEB765970FB6F894DEBF0FBECDBF80910B
:103CD000430710924307882369F00E943E7565965A
:103CE0000FB6F894DEBF0FBECDBFDF91CF911F910D
:103CF0000F91089560E085E00E941F7400914A07CB
:103D000010E0011130C080914C01882341F030E077
:103D100020E043E067E274E0812F0E94567B61EF70
:103D200073E0CE0101960E941EEE6FEE73E0CE01AD
:103D300003960E941EEE053009F046C080914C01AA
:103D4000882349F09E012F5F3F4F41E065EE73E00D
:103D5000812F0E94567B0F5F1F5F153091F687E021
:103D600080934407BCCF013051F480914C018823EB
:103D7000B1F230E020E041E06FE174E0CDCF0230FD
:103D800079F580914C01882341F030E020E041E05A
:103D900064E174E0812F0E94567B61EF73E0CE01F5
:103DA00001960E941EEE6FEE73E0CE0103960E9414
:103DB0001EEED1CF80914C01882379F330E020E0D2
:103DC00041E068E074E0A8CF063029F680914C010C
:103DD000882309F230E020E041E067ED73E0B8CFDE
:103DE000033041F3043009F09ACF80914C018823CD
:103DF000A1F230E020E041E064EF73E08DCF0F935B
:103E00001F93CF93DF93CDB7DEB765970FB6F894C6
:103E1000DEBF0FBECDBF80914307109243078823BA
:103E200069F00E943E7565960FB6F894DEBF0FBE2E
:103E3000CDBFDF91CF911F910F91089560E085E094
:103E40000E941F7400914A0710E001110CC080917C
:103E50004C01882341F030E020E043E066EC73E061
:103E6000812F0E94567B63EC73E0CE0101960E9485
:103E70001EEE6CEB73E0CE0103960E941EEE013045
:103E800069F480914C01882349F09E012F5F3F4FD8
:103E900041E067EB73E0812F0E94567B64EB73E097
:103EA000CE0101960E941EEE60EB73E0CE010396F8
:103EB0000E941EEE023069F480914C01882349F083
:103EC0009E012F5F3F4F41E067EA73E0812F0E9420
:103ED000567B64EA73E0CE0101960E941EEE6CE907
:103EE00073E0CE0103960E941EEE033069F48091C8
:103EF0004C01882349F09E012F5F3F4F41E068E964
:103F000073E0812F0E94567B0F5F1F5F153009F011
:103F10009CCF84E08093440786CF0F931F93CF9369
:103F2000DF93CDB7DEB765970FB6F894DEBF0FBE4F
:103F3000CDBF8091430710924307882369F00E9408
:103F40003E7565960FB6F894DEBF0FBECDBFDF910C
:103F5000CF911F910F91089560E085E00E941F743A
:103F600000914A0710E001110CC080914C01882398
:103F700041F030E020E042E069E873E0812F0E94E8
:103F8000567B66E873E0CE0101960E941EEE64E85F
:103F900073E0CE0103960E941EEE013069F4809119
:103FA0004C01882349F09E012F5F3F4F40E06BE7B3
:103FB00073E0812F0E94567B68E773E0CE01019683
:103FC0000E941EEE64E773E0CE0103960E941EEE8F
:103FD0000230D1F480914C01882349F09E012F5F7B
:103FE0003F4F40E06BE673E0812F0E94567B67E411
:103FF00073E0CE0101960E941EEE65E473E0CE01EF
:1040000003960E941EEE2AC0033009F04BC0809137
:104010004C01882361F330E020E040E069E573E083
:10402000812F0E94567B67E473E0CE0101960E94C7
:104030001EEE65E473E0CE0103960E941EEE05308D
:1040400069F480914C01882349F09E012F5F3F4F16
:1040500040E06BE773E0812F0E94567B62E473E0DF
:10406000CE0101960E941EEE6EE373E0CE01039630
:104070000E941EEE063021F580914C01882349F004
:104080009E012F5F3F4F40E06BE673E0812F0E945F
:10409000567B0F5F1F5F153009F065CF88E0809376
:1040A00044074FCF043009F0BECF80914C018823E4
:1040B00009F49DCF30E020E042E06AE473E0B0CF45
:1040C000073039F780914C01882319F330E020E064
:1040D00040E069E573E0DACF80912E02811106C0DD
:1040E000109233020E943E750E94FC7380914C0135
:1040F000882341F030E020E041E068ED71E081E0AC
:104100000E94567B82E080934C010895EF92FF92CB
:104110000F931F93CF937C018B01C2E44F3F09F0B3
:10412000C4E580E20E949A8A8C2F0E949A8A8AE3D0
:104130000E949A8AF701608171818281938142E0B5
:104140000E948A8CF801408151816281738189EFDC
:1041500092E10E949A8D62E070E080E090E0CF9161
:104160001F910F91FF90EF900C941AC90F930FB706
:104170000F9300916E000B7F00936E0078940F9365
:104180000BB70F930CB70F921F922F933F934F9340
:104190005F936F937F938F939F93AF93BF93EF93AF
:1041A000FF9311240E94612AFF91EF91BF91AF917B
:1041B0009F918F917F916F915F914F913F912F913F
:1041C0001F900F900CBF0F910BBF0F910460F894DC
:1041D00000936E000F910FBF0F9118958091560DAF
:1041E0009091570D8635910554F481E02091400758
:1041F00030914107263031051CF480E0089581E0BC
:1042000008958091490190914A010F971816190657
:1042100014F490E080E09093570D8093560D0E9427
:1042200059C910924107109240070E945A18809174
:10423000490190914A010F971816190614F490E05D
:1042400080E09093570D8093560D0E9459C91092AB
:10425000580D5D9810924107109240071092420746
:104260005C9808951092D9070E9401210C9436752C
:104270008F929F92AF92BF92CF92DF92EF92FF9276
:104280000F931F93CF93DF93B0E4A0E06A2F70E009
:10429000AB014B0F511D55954795411119C0EAEBE4
:1042A000F4E265917491072E000C880B990B0E9423
:1042B000DFEEDF91CF911F910F91FF90EF90DF9094
:1042C000CF90BF90AF909F908F900895B42FE0CF84
:1042D000A41711F0B41303C0E6EBF5E2E2CF9A01A4
:1042E00021503109220F331F220F331FF901E854E7
:1042F000FB4DE590F490F901E454FB4DC591D49148
:104300008E159F051CF3A42FC817D9070CF4BECF38
:10431000F901E654FB4D05911491F901E254FB4D6E
:10432000C590D490BC016E197F09072E000C880B34
:10433000990B0E94DFEE4B015C01B601601B710B13
:10434000072E000C880B990B0E94DFEE9B01AC013D
:10435000C501B4010E943EEF4B015C01BE016E1924
:104360007F09072E000C880B990B0E94DFEE9B0142
:10437000AC01C501B4010E94E0F56B017C01B801FC
:10438000110F880B990B0E94DFEE9B01AC01C70156
:10439000B6010E945DF58DCFCF93DF93CEE4DDE0D3
:1043A0008A819B810E9462B36C837D838E839F830D
:1043B000C8E3D7E08A819B810E9438216C837D838A
:1043C0008E839F83A8951092A202DF91CF910895CA
:1043D000EF92FF920F931F93CF93DF93D82F7B0120
:1043E0008A0180913707813099F40E94D88AC701E9
:1043F0000E94A18A8BE592E10E94A18AD11126C078
:1044000060E070E0CB010E94388C8AE00E949A8ABA
:104410000E94012180918603811127C081E0809351
:10442000860380E880933707C5E1C150149A99F05C
:1044300069E170E080E090E00E941AC9149860E59C
:1044400070E080E090E00E941AC9EFCF87E592E12A
:104450000E94A18ADACF60E572E1DF3F11F064E5E6
:1044600072E140E0C8010E94E08ADF91CF911F9184
:104470000F91FF90EF9008953F924F925F926F924D
:104480007F928F929F92AF92BF92CF92DF92EF92E4
:10449000FF920F931F93CF93DF936C015B01322E3A
:1044A0004801C1E0D0E0211102C0D0E0C0E0FA0133
:1044B0004080518062807380CC0FDD1FCC0FDD1FE8
:1044C0008E0100551C4FA3019201F801608171819A
:1044D000828193810E94D8EE882391F0F801408276
:1044E00051826282738211E020E030E0A901C301B1
:1044F000B2010E94E0F618160CF010E0F6011483E9
:10450000F60184818230C9F0833009F463C08130C0
:1045100009F03FC0FE01E055FC4F2081318142810E
:104520005381F50160817181828193810E94D8EE6F
:1045300087FD2FC082E0F6018483C055DC4FB701B0
:1045400090E080E00E94DDEE9B01AC016881798102
:104550008A819B810E945CF59B01AC01F501608121
:104560007181828193810E94E0F687FD24C00E94C0
:104570004DC92B013C019401A8EEB3E00E944DF51A
:10458000460E571E681E791EF601408251826282D5
:104590007382DF91CF911F910F91FF90EF90DF9089
:1045A000CF90BF90AF909F908F907F906F905F90D3
:1045B0004F903F9008950E944DC9F60100811181EE
:1045C00022813381601B710B820B930B97FDE1CF2E
:1045D00083E0848347E952E167EA72E1832DDF914A
:1045E000CF911F910F91FF90EF90DF90CF90BF90F0
:1045F000AF909F908F907F906F905F904F903F9083
:104600000C94E8212F923F924F925F926F927F928B
:104610008F929F92AF92BF92CF92DF92EF92FF92D2
:104620000F931F93CF93DF93CDB7DEB763970FB68A
:10463000F894DEBF0FBECDBF8091A202811119C0D8
:1046400063960FB6F894DEBF0FBECDBFDF91CF915A
:104650001F910F91FF90EF90DF90CF90BF90AF90A0
:104660009F908F907F906F905F904F903F902F9092
:1046700008950E94CC210E944DC92B013C0120E0ED
:1046800030E0A9016091520D7091530D8091540D4D
:104690009091550D0E945DF56B017C01609149017F
:1046A00070914A01072E000C880B990B0E94DFEED7
:1046B0009B01AC01C701B6010E94E0F618160CF48C
:1046C00047C26091560D7091570D072E000C880B54
:1046D000990B0E94DFEE69837A838B839C8324E0AD
:1046E000E22EF12C08E210E020E0AE014F5F5F4FB8
:1046F00062E57DE085EA93E00E943C22C090520D85
:10470000D090530DE090540DF090550D60914701FD
:1047100070914801072E000C880B990B0E94DFEE68
:104720009B01AC01C701B6010E94E0F618160CF01F
:1047300015C16091490170914A01072E000C880B48
:10474000990B0E94DFEE9B01AC01C701B6010E94EC
:10475000D8EE87FF03C16091560D7091570D61151A
:10476000710509F45BC2072E000C880B990B0E949F
:10477000DFEEA70196010E945CF54B015C0120E091
:1047800030E040E251EC0E94D8EE87FD47C220E0C5
:1047900030E040E251E4C501B4010E94E0F6181691
:1047A0000CF452C280919B03811153C22091930358
:1047B0003091940340919503509196032D833E834D
:1047C0004F8358878091970390919803A091990304
:1047D000B0919A0389879A87AB87BC87A701960116
:1047E00060918703709188038091890390918A0377
:1047F0000E945CF52091610D3091620D4091630D36
:104800005091640D0E943EEF2D813E814F8158856D
:104810000E945CF520ED3CEC4CE45DE30E943EEF31
:104820002D813E814F8158850E945DF56D837E8389
:104830008F83988760939303709394038093950379
:104840009093960320915D0D30915E0D40915F0D28
:104850005091600D2D873E874F87588B29853A856B
:104860004B855C85C501B4010E945DF51B018C017F
:1048700020E030E0A9010E94D8EE87FDF5C12D852A
:104880003E854F85588960E070E08FE793E40E9491
:10489000E0F56987798B8A8B9B8B9101A8010E9437
:1048A000D8EE87FF04C0298439880A891B89C10191
:1048B000D8018093970390939803A0939903B093A2
:1048C0009A032091590D30915A0D40915B0D5091F2
:1048D0005C0DC501B4010E943EEF4B015C0180926A
:1048E0008B0390928C03A0928D03B0928E03910162
:1048F000A8016D857E858F8598890E943EEF9B017A
:10490000AC0120938F033093900340939103509315
:104910009203C501B4010E945DF52D813E814F8156
:1049200058850E945DF520E030E0A9010E945DF508
:104930004B015C0120E030E0A9010E94D8EE87FD28
:1049400070C120E030E04FE753E4C501B4010E949C
:10495000E0F618160CF06FC16FE764C160E0609379
:10496000580D80914A0D90914B0DA0914C0DB09136
:104970004D0D0097A105B10551F1A3019201281B2E
:10498000390B4A0B5B0BDA01C901B7FD20C020E0EF
:1049900030E0A901C701B6010E945DF54B015C0141
:1049A0006091480D7091490D90E080E00E94DDEE2D
:1049B0009B01AC01C501B4010E94D8EE87FFFFC086
:1049C00049E752E168E872E180E00E94E82120E0D6
:1049D00030E04AEF52E460913C0770913D078091CE
:1049E0003E0790913F070E94E0F618160CF4A8C00D
:1049F0008091AC039091AD03A091AE03B091AF0351
:104A00000097A105B10549F1A3019201281B390BBB
:104A10004A0B5B0BDA01C901B7FD1FC080903C0750
:104A200090903D07A0903E07B0903F076091AA0389
:104A30007091AB0390E080E00E94DDEE9B01AC0141
:104A4000C501B4010E94D8EE87FF8AC049E752E150
:104A500068E872E18FEF0E94E8218091A1039091B4
:104A6000A203A091A303B091A403A3019201281B68
:104A7000390B4A0B5B0BDA01C901B7FDE1CDD3015C
:104A8000C20188579C4EAF4FBF4F8093A1039093B4
:104A9000A203A093A303B093A40360914007709175
:104AA0004107072E000C880B990B0E94DFEE6983EB
:104AB0007A838B839C8382E0E82EF12C04E110E062
:104AC0002FEFAE014F5F5F4F6CE377E08CE993E02F
:104AD0000E943C22C0903C07D0903D07E0903E07EA
:104AE000F0903F0720E030E040EA50E4C701B60113
:104AF0000E94E0F687FD20C020E030E04AEF52E45B
:104B0000C701B6010E94D8EE1816B4F060914007B4
:104B100070914107072E000C880B990B0E94DFEE65
:104B20009B01AC01C701B6010E94D8EE87FD8AC087
:104B300080E08093420784CD109242075C9880CD3C
:104B400047E952E167EA72E18FEF0E94E82150CF16
:104B500047E952E167EA72E180E00E94E821B1CDC5
:104B6000E0904007F0904107E114F104F9F0C5012D
:104B7000B4010E9452F66E5F7F4F34E0E31AF108F1
:104B80006E157F059CF47093AB036093AA030E949B
:104B90004DC9605A75418F4F9F4F6093AC0370931E
:104BA000AD038093AE039093AF0357CF1092AC0345
:104BB0001092AD031092AE031092AF034ECFE0906F
:104BC000560DF090570DE114F104F9F0C501B40150
:104BD0000E9452F66E5F7F4F34E0E31AF1086E15C3
:104BE0007F059CF47093490D6093480D0E944DC958
:104BF000605E714B8F4F9F4F60934A0D70934B0DCA
:104C000080934C0D90934D0DE2CE10924A0D109270
:104C10004B0D10924C0D10924D0DD9CE81E080932A
:104C20009B0360E0C0928703D0928803E0928903DF
:104C3000F0928A0394CEC501B4010E9452F6759594
:104C40006795F0CF8FE775CF81E080939B036FE787
:104C5000E9CF10929B0319861A861B861C861D823B
:104C60001E821F821886BACD212C312C00E010E064
:104C70001ECECF92DF92EF92FF92CF93DF93EC01A3
:104C8000C880D980EA80FB8086E492E10E94A18AF4
:104C9000C701B6010E94388CCC80DD80EE80FF8099
:104CA00085E999E20E94A18AC701B6010E94388C69
:104CB000C884D984EA84FB8481E999E20E94A18AAC
:104CC000C701B6010E94388C8AE0DF91CF91FF9036
:104CD000EF90DF90CF900C949A8ABC0120916803EA
:104CE0003091690340916803509169032417350797
:104CF00031F481E02617370709F080E008959A0122
:104D0000F1CF0F930FB70F9300916E000F930B7FAE
:104D100000936E0000916F000D7F00936F000F9362
:104D20000BB70F930CB70F921F922F933F934F9394
:104D30005F936F937F938F939F93AF93BF93EF9303
:104D4000FF9311240E94322CFF91EF91BF91AF91FC
:104D50009F918F917F916F915F914F913F912F9193
:104D60001F900F900CBF0F910BBF0F910260F89432
:104D700000936F000F9100936E000F910FBF0F9182
:104D800018958091A30580FF23C0459A8FEF8093EB
:104D90001E038091A305869580FF1DC0479A8FEF63
:104DA00080931F038091A3058695869580FF16C08A
:104DB0002A988FEF809320038091A305869586958E
:104DC000869580FF0EC0289A8FEF80932103089567
:104DD000459881E0DCCF479881E0E2CF2A9A81E0D4
:104DE000E9CF289881E0F1CF0F931F93CF93DF9302
:104DF00000D000D0CDB7DEB78C0108960E946716B0
:104E000069837A838B839C83BE016F5F7F4FC80168
:104E10000E94FC149B01AC01F801608571858285BC
:104E200093850E945CF5F80160877187828793877C
:104E30000F900F900F900F90DF91CF911F910F91D6
:104E40000895AF92BF92CF92DF92EF92FF920F93AD
:104E50001F93CF93DF93CEE9DCE001EC17E08EEAFD
:104E6000A82E8CE0B82EC12CD12C7601C394699168
:104E70007991899199910E94DDEE288939894A8931
:104E80005B890E943EEF0E9459F6F801619371938D
:104E9000819391938F01C616D706E806F90610F4A0
:104EA0006B017C01AC16BD0611F76FEF7FEFCB01F4
:104EB000A70196010E9420F52093D1073093D207D5
:104EC0004093D3075093D407DF91CF911F910F9157
:104ED000FF90EF90DF90CF90BF90AF9008950F9329
:104EE0001F93CF93DF9302EB1CE0CAEDD7E0F801EC
:104EF00021913191419151918F0160E070E080E802
:104F00009FE30E94E0F56993799389939993F7E081
:104F1000CA3EDF0761F70E9434C3DF91CF911F9132
:104F20000F910C9421279091D50D8091D60D981357
:104F300006C080919B0C90919C0C892B19F00E94CB
:104F4000EA93F1CF08959091D50D8091D60D9813E5
:104F500008C080919B0C90919C0C892B11F40C94AF
:104F60000A8A0E94EA93EFCF0F931F93CF93DF93A8
:104F700000D000D0CDB7DEB72091EC0C2223E1F0B9
:104F80008C0108960E94671669837A838B839C83C1
:104F9000BE016F5F7F4FC8010E94FC149B01AC01F2
:104FA000F80160857185828593850E945DF5F80121
:104FB00060877187828793870F900F900F900F9073
:104FC000DF91CF911F910F9108954F925F926F9251
:104FD0007F928F929F92AF92BF92CF92DF92EF9289
:104FE000FF920F931F93CF93DF93CDB7DEB76A97EE
:104FF0000FB6F894DEBF0FBECDBF9A8F898F5B01CD
:105000008A01DC01D6966D917D918D919C91D99705
:105010000E94DDEE6B017C01F5012081318142812E
:1050200053810E943EEF0E94C9F52B013C01D8013B
:105030002D913D914D915C91C701B6010E943EEFCB
:105040000E94C9F54B015C01C301B2010E9459F6EF
:10505000698B7A8B8B8B9C8B6837710581059105E9
:1050600040F428E730E040E050E0298B3A8B4B8B4E
:105070005C8BC501B4010E9459F66D877E878F87CE
:10508000988B683771058105910540F488E790E0B9
:10509000A0E0B0E08D879E87AF87B88BE98DFA8D51
:1050A000EE5BFF4F208131814281538129833A8316
:1050B0004B835C83CA01B9010E94DFEE2B013C01E6
:1050C00069897A898B899C890E94DDEE69877A8754
:1050D0008B879C8720E030E0A901C301B2010E94C8
:1050E000D8EE882309F43BC1A7019601C701B60198
:1050F0000E943EEF4B015C0129853A854B855C851A
:10510000CA01B9010E943EEF9B01AC01C501B40187
:105110000E945CF54B015C01A3019201C301B20145
:105120000E945DF59B01AC01C501B4010E94E0F550
:105130000E94C9F50E9459F66D837E838F839887FC
:1051400069817A818B819C8190958095709561951C
:105150007F4F8F4F9F4F0E94DFEE4B015C016D85AB
:105160007E858F8598890E94DDEE69837A838B83A3
:105170009C8320E030E0A901C501B4010E94D8EE73
:10518000882309F4F0C029813A814B815C81CA01EE
:10519000B9010E943EEF6D8B7E8B8F8B988FA7019C
:1051A0009601C701B6010E943EEF9B01AC016D89DB
:1051B0007E898F89988D0E945CF56B017C01A50129
:1051C0009401C501B4010E945DF59B01AC01C701CA
:1051D000B6010E94E0F50E9488F6A98DBA8D9596D9
:1051E0008D909D90AD90BC909897750164012D8134
:1051F0003E814F815885C21AD30AE40AF50A0E94FB
:1052000059F6C61AD70AE80AF90AF7FE6EC020E076
:1052100030E0A901C301B2010E94D8EE882309F44D
:10522000A6C0C501B4010E94DDEE6B017C01A301A3
:105230009201C301B2010E945DF59B01AC01C7015F
:10524000B6010E943EEF6B017C0129853A854B85B2
:105250005C85CA01B9010E943EEF9B01AC01C70108
:10526000B6010E945CF56B017C0129813A814B817A
:105270005C81CA01B9010E943EEF9B01AC01C701EC
:10528000B6010E945DF56B017C0120E030E040E852
:1052900050E4C301B2010E943EEF9B01AC01C70183
:1052A000B6010E94E0F50E94C9F56B017C0120E087
:1052B00030E0A9010E94E0F618161CF0C12CD12C98
:1052C0007601C701B6010E9459F66D837E838F83F4
:1052D000988786169706A806B90620F48D829E82C6
:1052E000AF82B886C12CD12C76018D819E81AF8191
:1052F000B885E98DFA8D81A792A7A3A7B4A7C80E98
:10530000D91EEA1EFB1EC5A6D6A6E7A6F0AA2989C5
:105310003A894B895C8922AF33AF44AF55AFFE96D3
:105320002D853E854F855889208331834283538361
:105330006A960FB6F894DEBF0FBECDBFDF91CF9156
:105340001F910F91FF90EF90DF90CF90BF90AF90A3
:105350009F908F907F906F905F904F90089560E046
:1053600070E0CB01E5CE60E070E0CB0134CF60E0CF
:1053700070E0CB0198CF90916F0081E091FD02C069
:1053800080E0089590916F009D7F90936F00089545
:10539000EFE6F0E08081826080830895CF93C82F8C
:1053A0000E94BB2994E0C99F90011124F901E6599C
:1053B000FC4F2A583C4FD9014D915D916D917C91E4
:1053C000408351836283738391E09093A102882389
:1053D00019F0CF910C94C829CF910895CF92DF9204
:1053E000EF92FF9280911D03329B60C08160809399
:1053F0001D0380911D0333995BC08D7F80931D0336
:1054000080911D03349956C08B7F80931D03C090FB
:105410005B03C0FE10C08091A30580FF0CC080918B
:105420001D0380FF08C08091360781608093360796
:1054300080E00E94CE29D12CF12CE12CD701C601AD
:10544000B695A7959795879580FF11C08091A30584
:10545000869580FF0CC080911D0381FF08C080915C
:10546000360782608093360781E00E94CE2982E071
:10547000F694E794D794C7948A95D1F7C0FE1CC0E0
:105480008091A3058695869580FF16C080911D03A7
:1054900082FF12C08091360784608093360782E0D5
:1054A000FF90EF90DF90CF900C94CE298E7F9FCF0E
:1054B0008260A4CF8460A9CFFF90EF90DF90CF905F
:1054C00008950F931F93CF93DF9380912E018F3711
:1054D00008F477C08F579091580D9093BB03992390
:1054E00009F46DC05D9A909142079093BA03992395
:1054F00009F471C05C9A8F5F80932E018091B9038B
:1055000091E089278093B90381110E9490188091BE
:105510002D01C1E0C80F85300CF0C0E0823009F4E5
:1055200005C10CF05AC0882309F46FC0813009F41A
:10553000F2C0C0932D018091A3029091A402009724
:1055400009F1F89423B124701598181619060CF077
:105550001BC12A9A2B9A30E13A950000E9F72B9863
:10556000222309F413C12A9A7894181619060CF00C
:105570000FC18091A3029091A40201979093A4027D
:105580008093A3028091A20581110E94EE2980914F
:105590009B0C90919C0C009769F0019790939C0C48
:1055A00080939B0C892B31F485EF92E19093B305A6
:1055B0008093B205DF91CF911F910F9108955D986F
:1055C00092CF9091BB03891708F05D989091BA0330
:1055D000891708F490CF5C988ECF843009F4BDC051
:1055E0000CF4B7C0853009F0A4CF9091B8039111A5
:1055F00002C08093B8038091B80381508093B803B0
:10560000882309F496CFC5E094CF80912C018F5F59
:1056100080311CF480932C018CCF10922C0180914E
:10562000A202811113C080914E0D90914F0D909365
:10563000510D8093500D80913807909139079093C8
:105640003B0780933A0781E08093A20210924F0DAE
:1056500010924E0D10923907109238070091500D9C
:105660001091510D8091560D9091570DD1E0181663
:1056700019062CF08091580D811101C0D0E0809165
:10568000450190914601081719073CF447EB52E198
:1056900064EC72E180E00E94E821DD2371F08091EA
:1056A000430190914401801791073CF446ED52E18B
:1056B00063EE72E180E00E94E821009140071091C2
:1056C000410720913A0730913B0780919F059091C7
:1056D000A005821793073CF047EB52E164EC72E1BE
:1056E0008FEF0E94E821101611060CF022CF2091B6
:1056F0003A0730913B078091410190914201281770
:1057000039070CF416CF46ED52E163EE72E18FEFEC
:105710000E94E8210ECF10927B0087E480937C00EA
:1057200080917A00806480937A0003CF80917A0020
:1057300086FD26C0209178003091790080914E0D31
:1057400090914F0D820F931F90934F0D80934E0DAC
:10575000F0CE10927B0086E4E1CF80917A0086FD46
:1057600011C0209178003091790080913807909194
:105770003907820F931F9093390780933807D9CE4A
:10578000C2E0D7CEC4E0D5CE2A98E4CE2A98ECCE9B
:105790008091A3029091A4020196F0CE0E94BB29B1
:1057A0001092D5071092D6071092D7071092D807FB
:1057B00081110C94C82908950F931F938091D50DE2
:1057C0009091D60D891B8F7009F449C09091D20D2C
:1057D000992361F0833040F48FEF890F29F0809393
:1057E000D20D90E080E038C01092D20D8091D60D9D
:1057F0002BE4829FC00111248551984FFC01208128
:1058000020FDEFCF4091D5075091D6076091D70783
:105810007091D807E95BFF4F0081118122813381AC
:10582000401B510B620B730B4093D5075093D60767
:105830006093D7077093D8072091D60D2F5F2F70F4
:105840002093D30D3091D60D2091D40D321304C086
:105850002091D30D2093D40D1F910F9108950E9494
:10586000CE2BBFCF2F923F924F925F926F927F923B
:105870008F929F92AF92BF92CF92DF92EF92FF9260
:105880000F931F93CF93DF9300D01F92CDB7DEB756
:105890008FEF9FEF90938900809388000AE009833F
:1058A000312C212C78948091640390916503A09110
:1058B0006603B0916703892B8A2B8B2B09F0C2C139
:1058C0008091A1028823D1F08091680390916903AF
:1058D0001092A102892B91F010925B031092690340
:1058E000109268039091D50D8091D60D981731F0E4
:1058F0008091D60D8F5F8F708093D60D8091680355
:1059000090916903892B09F49DC1409160035091E6
:105910006103609162037091630380915C039091D5
:105920005D03A0915E03B0915F0300914E0310E010
:1059300030E020E0841B950BA60BB70B0817190766
:105940002A073B0710F4D901C8018A83840F951FE9
:10595000A61FB71F8093600390936103A093620317
:10596000B0936303E1E0C0902603D0902703E0905A
:105970002803F09029038091360390913703A0917A
:105980003803B0913903C80ED91EEA1EFB1EC0921F
:105990003603D0923703E0923803F0923903F7FCD4
:1059A00033C080911E03082E000C990BAA0BBB0B71
:1059B0004091760350917703609178037091790359
:1059C000840F951FA61FB71F8093760390937703CC
:1059D000A0937803B09379038091220390912303DD
:1059E000A0912403B0912503A7019601281B390B30
:1059F0004A0B5B0BDA01C90180933603909337039E
:105A0000A0933803B093390300912A0310912B031C
:105A100020912C0330912D0380913A0390913B0308
:105A2000A0913C03B0913D03080F191F2A1F3B1F93
:105A300000933A0310933B0320933C0330933D03C0
:105A400037FD33C080911F03082E000C990BAA0B61
:105A5000BB0B40917A0350917B0360917C03709162
:105A60007D03840F951FA61FB71F80937A03909321
:105A70007B03A0937C03B0937D03809122039091DC
:105A80002303A0912403B0912503B901A801481B69
:105A9000590B6A0B7B0BDB01CA0180933A0390938D
:105AA0003B03A0933C03B0933D0340912E035091E0
:105AB0002F03609130037091310380913E039091E8
:105AC0003F03A0914003B0914103480F591F6A1F43
:105AD0007B1F40933E0350933F03609340037093BA
